:020000040800F2
:10000000F012002005010008551D0008F91900082C
:10001000511D0008950100082D2300080000000074
:10002000000000000000000000000000811D00082A
:10003000D501000800000000571D0008831D0008BE
:100040001F0100081F0100081F0100081F01000810
:100050001F0100081F0100081F0100081F01000800
:100060001F0100081F0100081F0100081F010008F0
:100070001F0100081F0100081F0100089901000866
:100080001F0100081F0100081F0100081F010008D0
:100090001F0100081F0100081F0100081F010008C0
:1000A0001F0100081F0100081F0100081F010008B0
:1000B000451E00081F010008551E00081F0100080A
:1000C0001F0100081F0100081F0100081F01000890
:1000D0001F0100081F0100081F0100081F01000880
:1000E0001F0100081F0100081F010008DFF810D0E1
:1000F00000F02CF800480047892B0008AFF300807F
:10010000F01200200648804706480047FEE7FEE759
:10011000FEE7FEE7FEE7FEE7FEE7FEE7FEE7FEE7B7
:10012000ED1D0008ED000008D2B201E000F8012B3F
:10013000491EFBD270470022F6E710B513460A4667
:1001400004461946FFF7F0FF204610BD064C074D48
:1001500006E0E06840F0010394E807009847103497
:10016000AC42F6D3FFF7C6FF682D0008882D0008C3
:1001700010B50446462C02DD4620044908700348A9
:1001800004700348007802F015FD10BD75000020D2
:100190008300002000BFFEE710B5024800F080F8A1
:1001A00010BD00000C01002030B590F84050012433
:1001B000AC40C56B6C60046863604468102C04D16B
:1001C0000468A2600468E16003E00468A160046858
:1001D000E26030BD704772B600BFFEE70146B42949
:1001E00000DDB4210148405C70470000742C000819
:1001F00070B50446002594F82100022803D004209D
:10020000A063012548E02068006820F00E00216806
:1002100008602068006820F00100216808601F491C
:100220002068884201D1012026E01C491431206851
:10023000884201D110201FE01849283120688842E7
:1002400001D1801518E015493C312068884201D160
:10025000801411E0114950312068884202D14FF4D6
:10026000803009E00D4964312068884202D14FF4A2
:10027000801001E04FF08070084908394860012083
:1002800084F8210000BF002084F8200000BF606BCC
:1002900010B12046616B8847284670BD08000240B7
:1002A00070B50446E06B05682068066894F8401055
:1002B000042088402840002846D006F0040000288A
:1002C00042D02068006800F0200028B9206800684B
:1002D00020F004002168086057492068884201D155
:1002E000042027E0544914312068884201D140207D
:1002F00020E0514928312068884201D1001519E0D9
:100300004D493C312068884202D14FF4804011E0D1
:10031000494950312068884202D14FF4802009E0D9
:10032000454964312068884202D14FF4800001E0E1
:100330004FF08060404908394860E06A00287AD070
:100340002046E16A884776E094F840100220884011
:100350002840A0B306F0020088B32068006800F0CF
:10036000200040B92068006820F00A002168086079
:10037000012084F8210030492068884201D1022000
:1003800028E02D4914312068884201D1202021E045
:10039000294928312068884201D140151AE02649B0
:1003A0003C312068884202D14FF4005012E02249CB
:1003B00050312068884203D14FF400300AE017E042
:1003C0001D4964312068884202D14FF4001001E0D9
:1003D0004FF0007018490839486000BF002084F8C9
:1003E000200000BFA06A30B32046A16A884722E0FF
:1003F00094F84010082088402840E0B106F008003A
:10040000C8B12068006820F00E002168086094F8E8
:10041000401001208840E16B48600120A06384F80F
:10042000210000BF002084F8200000BF206B10B125
:100430002046216B884770BD08000240014600221B
:1004400009B901207047164B0868C01A1423B0FB85
:10045000F3F08000086412480838C863022081F86D
:1004600021000868026843F6F0708243D1E9010375
:100470001843CB6818430B6918434B6918438B69C1
:100480001843CB6918430243086802600020886360
:10049000012081F82100002081F8200000BFD1E771
:1004A000080002402DE9F04104460D4616461F465D
:1004B0004FF0000800BF94F82000012802D102206C
:1004C000BDE8F081012084F8200000BF94F82100ED
:1004D00001282CD1022084F821000020A06320688C
:1004E000006820F00100216808603B46324629463A
:1004F0002046FFF759FEE06A30B12068006840F0FE
:100500000E00216808600BE02068006820F00400FD
:10051000216808602068006840F00A0021680860CF
:100520002068006840F001002168086006E000BF14
:10053000002084F8200000BF4FF002084046BFE7CB
:100540002DE9F8470346002294466EE14FF001087A
:1005500008FA02F4D1F8008008EA0400A0427DD134
:10056000DFF8DCA2D1F80480A8EB0A09D0453AD024
:1005700014DCB8F1030F50D009DCB8F1000F31D012
:10058000B8F1010F1CD0B8F1020F49D120E0B8F149
:10059000110F18D0B8F1120F42D11EE0B9F5881F23
:1005A00025D006DCB9F5803F20D0B9F5801F37D1C2
:1005B0001AE0B9F5001F18D0B9F5041F30D117E0C3
:1005C000D1F80CC02DE0D1F80C8008F1040C28E023
:1005D000D1F80C8008F1080C23E0D1F80C8008F168
:1005E0000C0C1EE000BF00BF00BF00BF00BF00BF7B
:1005F000D1F80880B8F1000F02D14FF0040C0BE0E5
:10060000D1F80880B8F1010F03D14FF0080C1C613C
:1006100002E04FF0080C5C6103E04FF0000C00E0DA
:1006200000BF00BFFF2801D8984601E003F104088D
:100630004646FF2802D84FEA820803E0A2F10808E4
:100640004FEA88084746D6F800804FF00F0909FAAC
:1006500007F928EA09080CFA07F900E088E048EAF7
:100660000908C6F80080D1F8048008F08058B8F175
:10067000805F7DD100BFDFF8CC81D8F8188048F0CA
:100680000108DFF8C091C9F81880C846D8F818806A
:1006900008F00108CDF8008000BF00BF4FEAB9386C
:1006A0004FEA920958F829504FEA82784FEA1879B0
:1006B0004FF00F0808FA09F825EA0805DFF88881E5
:1006C000434502D14FF0000816E0DFF88081434532
:1006D00002D14FF001080FE0DFF87481434502D1E9
:1006E0004FF0020808E0DFF86C81434502D14FF07B
:1006F000030801E04FF004084FEA82794FEA1979C4
:1007000008FA09F848EA0505DFF84C814FEA920932
:1007100048F82950D1F8048008F48038B8F5803FB3
:100720000AD1DFF83881D8F8008048EA0008DFF8FD
:100730002C91C9F8008009E0DFF82081D8F800800A
:1007400028EA0008DFF81491C9F80080D1F8048085
:1007500008F40038B8F5003F10D1DFF8008108F147
:100760000408D8F8008048EA0008DFF8F09000E0BC
:100770005AE009F10409C9F800800DE0DFF8DC80D7
:1007800008F10408D8F8008028EA0008DFF8CC90C7
:1007900009F10409C9F80080D1F8048008F4801830
:1007A000B8F5801F0ED1DFF8B48008F10808D8F83A
:1007B000008048EA0008DFF8A49009F10809C9F8A8
:1007C00000800DE0DFF8948008F10808D8F8008078
:1007D00028EA0008DFF8849009F10809C9F80080C8
:1007E000D1F8048008F40018B8F5001F0ED1DFF826
:1007F0006C8008F10C08D8F8008048EA0008DFF89F
:100800005C9009F10C09C9F800800DE0DFF84C801C
:1008100008F10C08D8F8008028EA0008DFF83C90BE
:1008200009F10C09C9F80080521CD1F8008028FA9F
:1008300002F8B8F1000F7FF489AEBDE8F887000038
:10084000000011100010024000080140000C01409F
:100850000010014000140140080001400004014064
:10086000024693680B400BB1012000E00020704766
:100870000148006870470000040000200348006839
:1008800003490978084401490860704704000020C2
:100890000C00002010B50848006840F01000064920
:1008A0000860032000F080F80F2000F007F800F047
:1008B0002BF8002010BD00000020024070B5044657
:1008C0000E4800784FF47A71B1FBF0F00C490968DA
:1008D000B1FBF0F5284600F0E3FB08B1012070BD44
:1008E000102C07D200222146501E00F01EF80548A9
:1008F000046001E00120F2E70020F0E70C00002096
:10090000000000200800002070470146084600282B
:1009100009DB00F01F0301229A4043099B0003F109
:10092000E023C3F8002100BF70472DE9F05F804647
:100930000D461646002701F0A1FF074639462A4614
:10094000334601F00700C0F1070ABAF1040F02D9DB
:100950004FF0040A01E0C0F1070AD14600F1040A91
:10096000BAF1070F02D24FF0000A01E0A0F1030A2A
:10097000D4464FF0010A0AFA09FAAAF1010A0AEA72
:10098000020A0AFA0CFA4FF0010B0BFA0CFBABF15E
:10099000010B0BEA030B4AEA0B042146404601F027
:1009A00075FFBDE8F09F000000BF00F00702064B96
:1009B00019684FF6FF031940044B0B4343EA022129
:1009C000014B196000BF70470CED00E00000FA0514
:1009D00070B504460D460CB9012070BD5A48006838
:1009E00000F00700A8420ED25748006820F0070028
:1009F0002843554908600846006800F00700A842EF
:100A000001D00120E9E7207800F0020002281DD182
:100A1000207800F00400042805D14C48406840F4D8
:100A2000E0604A494860207800F00800082805D1B5
:100A30004648406840F46050444948604348406834
:100A400020F0F000A168084340494860207800F099
:100A5000010078B36068012806D13C48006800F4C2
:100A6000003090B90120B8E76068022806D1374805
:100A7000006800F0007040B90120AEE7334800681C
:100A800000F0020008B90120A7E73048406820F0D4
:100A90000300616808432D494860FFF7E9FE0646F8
:100AA00009E0FFF7E5FE801B41F28831884202D958
:100AB000032092E707E02548406800F00C006168D9
:100AC000B0EB810FEDD12048006800F00700A8428C
:100AD0000ED91D48006820F0070028431A49086015
:100AE0000846006800F00700A84201D0012074E722
:100AF000207800F00400042807D11448406820F44E
:100B0000E060E168084311494860207800F008007F
:100B1000082808D10D48406820F46050216940EA57
:100B2000C1000A49486000F03FF808494968C1F32C
:100B30000311074A515CC84006490860064800682E
:100B4000FFF7BCFE002048E70020024000100240F2
:100B50005C2C00080000002008000020014800680C
:100B6000704700000000002000B5FFF7F7FF0449C0
:100B70004968C1F30221034A515CC84000BD00002E
:100B8000001002406C2C000800B5FFF7E7FF044995
:100B90004968C1F3C221034A515CC84000BD00004E
:100BA000001002406C2C0008F0B585B00FF26C0C00
:100BB0009CE8E01001A8A0E8E0101CA52D680095B5
:100BC00000210022002300240020194D696801F053
:100BD0000C05F5B1042D02D0082D19D101E01548FE
:100BE00019E001ADC1F38346AC5D01F4803555B128
:100BF0000F4D6D68C5F340451DF805200D4D65434B
:100C0000B5FBF2F302E00C4D04FB05F3184602E0DD
:100C100000BF084800BF00BF05B0F0BD02030405D7
:100C2000060708090A0B0C0D0E0F10100102000038
:100C30000010024000127A0000093D00F8B5044699
:100C40000CB90120F8BD207800F00100002878D010
:100C5000F848406800F00C0004280CD0F5484068C3
:100C600000F00C00082811D1F248406800F48030F0
:100C7000B0F5803F0AD1EF48006800F4003000284A
:100C80005FD0606800285CD10120DBE700BF6068AE
:100C9000B0F5803F06D1E748006840F48030E54970
:100CA000086028E0606858B9E248006820F48030A5
:100CB000E04908600846006820F4802008601AE0D7
:100CC0006068B0F5A02F0BD1DA48006840F48020AE
:100CD000D84908600846006840F4803008600AE09F
:100CE000D448006820F48030D24908600846006883
:100CF00020F48020086000BF606888B1FFF7B8FD6D
:100D0000054606E0FFF7B4FD401B642801D9032027
:100D100098E7C848006800F400300028F2D010E0DE
:100D2000FFF7A6FD054606E0FFF7A2FD401B64287D
:100D300001D9032086E7BF48006800F4003000288E
:100D4000F2D1207800F00200022857D1B94840685B
:100D500000F00C0050B1B748406800F00C000828C3
:100D600018D1B448406800F4803098B9B1480068A0
:100D700000F0020020B12069012801D0012061E7C4
:100D8000AC48006820F0F800616940EAC100A94958
:100D9000086033E02069E8B10120A7490860FFF747
:100DA00067FD054606E0FFF763FD401B022801D9F9
:100DB000032047E79F48006800F002000028F2D0B7
:100DC0009C48006820F0F800616940EAC100994938
:100DD000086013E0002098490860FFF749FD0546C8
:100DE00006E0FFF745FD401B022801D9032029E753
:100DF0009048006800F002000028F2D1207800F04E
:100E0000080008282DD1A069B8B101208B490860DD
:100E1000FFF72EFD054606E0FFF72AFD401B0228DE
:100E200001D903200EE78348406A00F00200002841
:100E3000F2D0012000F090FF13E000207F4908600D
:100E4000FFF716FD054606E0FFF712FD401B0228DE
:100E500001D90320F6E67748406A00F00200002836
:100E6000F2D1207800F00400042873D100277148E3
:100E7000C06900F0805070B900BF6E48C06940F092
:100E800080506C49C8610846C06900F080500090ED
:100E900000BF00BF01276A48006800F48070B0B945
:100EA0006748006840F4807065490860FFF7E0FC1F
:100EB000054606E0FFF7DCFC401B642801D903204F
:100EC000C0E65F48006800F480700028F2D000BFE0
:100ED000E068012806D15748006A40F001005549F2
:100EE000086227E0E06858B95248006A20F0010023
:100EF000504908620846006A20F00400086219E0C0
:100F0000E06805280BD14B48006A40F004004949CD
:100F100008620846006A40F0010008620AE045489D
:100F2000006A20F00100434908620846006A20F088
:100F30000400086200BFE068A0B1FFF799FC054615
:100F400009E0FFF795FC401B41F28831884202D945
:100F5000032077E622E03748006A00F0020000280C
:100F6000EFD012E0FFF784FC054608E0FFF780FCB5
:100F7000401B41F28831884201D9032062E62D48A6
:100F8000006A00F002000028F0D1012F05D12948A5
:100F9000C06920F080502749C86100BFE069C8B32C
:100FA0002448406800F00C00082860D0E06902285E
:100FB00048D1002020490866FFF75AFC054606E0A4
:100FC000FFF756FC401B022801D903203AE61948D6
:100FD000006800F000700028F2D1206AB0F5803F70
:100FE00007D11448406820F40030A1680843114933
:100FF0004860D4E9080108430E49496821F4741196
:1010000008430C49486001200B490866FFF730FC93
:10101000054607E03DE0FFF72BFC401B022801D905
:1010200003200FE60348006800F000700028F2D0AB
:101030002FE00000001002400000424280044242C3
:1010400000700040002014490866FFF711FC0546B7
:1010500006E0FFF70DFC401B022801D90320F1E553
:101060000E48006800F000700028F2D111E0E0693D
:10107000012800D1E6E50948466806F48031206A77
:10108000814204D106F47011606A814201D00120CE
:10109000D8E50020D6E500000000424200100240E2
:1010A00070B504462546681EB0F1807F01D301204B
:1010B0000FE0681E4FF0E02148610F214FF0FF3034
:1010C00001F0E4FB00204FF0E02188610720086177
:1010D000002070BD7047704710B5024600BF92F8FF
:1010E0003C00012801D1022010BD012082F83C0003
:1010F00000BF022082F83D001068436810688468D1
:1011000023F070030868034324F080044868044314
:101110001068436010688460012082F83D0000BFC1
:10112000002082F83C0000BF00BFDDE710B5044698
:101130000CB9012010BD94F83D0028B9002084F8B6
:101140003C00204600F00CF8022084F83D00211DF0
:10115000206800F087FE012084F83D000020E9E7C8
:1011600038B504462068B0F1804F34D100BF27481D
:10117000C06940F001002549C8610846C06900F017
:101180000100009000BF00BF2148224908601020E4
:10119000486000211F4881608021C16049000161D1
:1011A00089004161002181614FF40051C161FFF765
:1011B00045F908B1FFF70FF800BF1649616208460C
:1011C000446200BF012211461C20FFF7AEFB1C2029
:1011D000FFF79BFB19E010492068884215D100BF3A
:1011E0000A48C06940F004000849C8610846C0695F
:1011F00000F00400009000BF00BF002202211E206A
:10120000FFF793FB1E20FFF780FB38BD0010024064
:10121000580002400C010020000800400146086808
:10122000C06840F001000B68D8600868806800F072
:101230000702062A05D00868006840F001000B6824
:101240001860002070472DE9F04104460D4600BFAC
:1012500094F83C00012802D10220BDE8F081012071
:1012600084F83C0000BF022084F83D0020688668B6
:1012700026F0770626F47F46206886602868502886
:1012800033D00CDC202850D004DC00284BD01028B0
:1012900051D149E0302849D040284CD139E060286C
:1012A0002DD0702807D0B0F5805F03D0B0F5005F77
:1012B00041D10DE040E0D5E902136A68206800F0F2
:1012C0006CFE2068866846F077062068866033E00A
:1012D000D5E902136A68206800F05FFE2068806824
:1012E00040F480402168886026E0EA6869682068E8
:1012F00000F024FF5021206800F05AFE1CE0EA684C
:101300006968206800F02DFF6021206800F050FE21
:1013100012E0EA686968206800F010FF4021206848
:1013200000F046FE08E000BF00BF00BF296820684B
:1013300000F03EFE00E000BF00BF012084F83D0049
:1013400000BF002084F83C0000BF00BF85E7704765
:10135000704710B5044620680069C0F34000D8B15A
:101360002068C068C0F34000B0B16FF0020021688F
:101370000861012020772068806900F0030018B11F
:101380002046FFF7E5FF05E0204600F0D7F82046AD
:1013900000F074F90020207720680069C0F3800015
:1013A000D8B12068C068C0F38000B0B16FF004000D
:1013B00021680861022020772068806900F440706D
:1013C00018B12046FFF7C4FF05E0204600F0B6F84C
:1013D000204600F053F90020207720680069C0F310
:1013E000C000D8B12068C068C0F3C000B0B16FF0D1
:1013F000080021680861042020772068C06900F097
:10140000030018B12046FFF7A3FF05E0204600F0D7
:1014100095F8204600F032F9002020772068006916
:10142000C0F30010D8B12068C068C0F30010B0B19C
:101430006FF0100021680861082020772068C069DB
:1014400000F4407018B12046FFF782FF05E0204607
:1014500000F074F8204600F011F900202077206891
:10146000006900F0010058B12068C06800F0010078
:1014700030B16FF0010021680861204600F030FAB9
:1014800020680069C0F3C01058B12068C068C0F37C
:10149000C01030B16FF08000216808612046FFF76E
:1014A00019FE20680069C0F3801058B12068C06838
:1014B000C0F3801030B16FF0400021680861204611
:1014C00000F01CFA20680069C0F3401058B1206891
:1014D000C068C0F3401030B16FF02000216808618F
:1014E0002046FFF7F8FD10BD10B586B00446002079
:1014F00002900390049005902068B0F1804F17D1BE
:1015000000BF0C48806940F004000A498861084621
:10151000806900F00400019000BF00BF012002902C
:10152000022003900320059002A90348FFF708F862
:1015300006B010BD0010024000080140704770B5B1
:1015400004460D46164600BF94F83C00012801D120
:10155000022070BD012084F83C0000BF022084F806
:101560003D0036B1042E1BD0082E31D00C2E5ED19A
:1015700045E02946206800F025FD2068806940F09C
:101580000800216888612068806920F004002168D3
:10159000886120688069296908432168886147E07B
:1015A0002946206800F03EFD2068806940F4006014
:1015B000216888612068806920F4806021688861E2
:1015C00020688069296940EA0120216888612FE04C
:1015D0002946206800F05AFD2068C06940F00800E4
:1015E0002168C8612068C06920F004002168C861D2
:1015F0002068C069296908432168C86118E0294644
:10160000206800F077FD2068C06940F40060216820
:10161000C8612068C06920F480602168C8612068C2
:10162000C069296940EA01202168C86100E000BF63
:1016300000BF012084F83D0000BF002084F83C007A
:1016400000BF00BF85E710B504460CB9012010BDEE
:1016500094F83D0028B9002084F83C00204600F0B2
:101660000CF8022084F83D00211D206800F0FAFBF0
:10167000012084F83D000020E9E7704710B50446DA
:101680002068B0F1804F03D10021204600F0B8F867
:1016900010BD70472DE9F04104460E4615461F4621
:1016A00094F83D00022801D1BDE8F08194F83D0096
:1016B000012805D10DB907B1F6E7022084F83D00F5
:1016C00036B1042E1FD0082E38D00C2E6CD150E02D
:1016D0004749606A81624749606AC1624649606AF7
:1016E0000163216801F134023B462946606AFEF736
:1016F000D9FE08B10120D7E72068C06840F4007027
:101700002168C86051E03A49A06A81623949A06AFB
:10171000C1623949A06A0163216801F138023B4680
:101720002946A06AFEF7BEFE08B10120BCE720688A
:10173000C06840F480602168C86036E02C49E06AE7
:1017400081622C49E06AC1622B49E06A0163216829
:1017500001F13C023B462946E06AFEF7A3FE08B1D0
:101760000120A1E72068C06840F400602168C860DB
:101770001BE01F49206B81621E49206BC1621E491C
:10178000206B0163216801F140023B462946206B32
:10179000FEF788FE08B1012086E72068C06840F4A3
:1017A00080502168C86000E000BF00BF01223146C0
:1017B000206800F091FB11492068884201D1012086
:1017C00000E0002028B12068406C40F4004021680F
:1017D00048642068806800F00708B8F1060F05D05B
:1017E0002068006840F001002168086000205BE785
:1017F000FB1E0008411F0008871F0008002C014045
:1018000070B504460D4635B1042D0ED0082D16D006
:101810000C2D28D11DE02068C06820F400702168DC
:10182000C860606AFEF7E4FC1EE02068C06820F42F
:1018300080602168C860A06AFEF7DAFC14E02068C6
:10184000C06820F400602168C860E06AFEF7D0FC40
:101850000AE02068C06820F480502168C860206BCE
:10186000FEF7C6FC00E000BF00BF0022294620684A
:1018700000F032FB19492068884201D1012000E0C4
:10188000002090B100BF2068006A41F211110840A9
:1018900050B92068006A8910084028B92068406C57
:1018A00020F400402168486400BF00BF2068006A3F
:1018B00041F21111084050B92068006A89100840AF
:1018C00028B92068006820F001002168086000BF86
:1018D000012084F83D00002070BD0000002C014074
:1018E00010B5044604492068884203D100F0F2FF95
:1018F00001F07EF910BD000000080040704710B5EF
:1019000004460CB9012010BDA06900B100E000BF81
:1019100094F8390028B9002084F83800204600F0F7
:1019200027F8242084F839002068C06820F400508B
:101930002168C860204600F029FC2068006920F476
:101940009040216808612068406920F02A002168E1
:1019500048612068C06840F400502168C8600020D9
:10196000E063202084F8390084F83A000020CAE7B8
:1019700010B586B0044600200290039004900590B4
:101980001A49206888422ED100BF1948806940F466
:101990008040174988610846806900F480400190C2
:1019A00000BF00BF00BF0846806940F004008861A6
:1019B0000846806900F00400019000BF00BF481590
:1019C0000290022003900320059002A90948FEF727
:1019D000B7FD4FF48060029000200390049002A9AC
:1019E0000448FEF7ADFD06B010BD00000038014010
:1019F000001002400008014000BFFEE700B585B0BE
:101A000000F052F90020019002900390049000BF72
:101A10000C48806940F008000A49886108468069DE
:101A200000F00800009000BF00BF072001900020D8
:101A300002900120039001A90348FEF781FD05B043
:101A400000BD000000100240000C014070B50546CA
:101A500025B1012D08D0022D12D10BE001210C4837
:101A6000FEF7FEFE04460DE002210948FEF7F8FEEF
:101A7000044607E004210648FEF7F2FE044601E0B2
:101A8000002070BD00BF0CB90120FAE70020F8E784
:101A9000000C014010B50821002001F063F828B3C4
:101AA0004848007804284BD047480078401C4649F5
:101AB000087008460078012804D0022806D00328C0
:101AC0000FD107E000203F4908700EE002203D4999
:101AD00008700AE003203B49087000203A4908706A
:101AE00003E000203849087000BF29E010210020E1
:101AF00001F038F8E0B135480078401C33490870EF
:101B000008460078012804D0022806D003280ED108
:101B100007E004202B49087009E0082029490870D3
:101B200005E00020274908702849087000BF07E039
:101B30002021002001F016F810B101202149087081
:101B40000821012001F00EF888B31E48007804280F
:101B500029D01C480078012825D01A480078082888
:101B600021D01B480078401C1949087008460078AD
:101B7000012804D0022806D003280FD107E0052051
:101B8000104908700EE006200E4908700AE0072090
:101B90000C49087000200E49087003E000200C4931
:101BA000087000BF0DE000200949087009E0FFE758
:101BB0001021012000F0D6FF18B92021012000F0EB
:101BC000D1FF10BD82000020860000208700002089
:101BD0008800002008B500BF0A48406940F00100B5
:101BE000084948610846406900F00100009000BFC4
:101BF00000BF002211460F20FEF797FE0F20FEF7D0
:101C000084FE08BD0010024000B58DB00020099090
:101C10000A900B900C90079008901C216846FEF7E4
:101C20008AFA4FF080401F49086000204860002178
:101C30001C4881605921C1600021016180218161BE
:101C4000FFF774FA08B1FEF7C6FA4FF48050099016
:101C500009A91448FFF7F7FA08B1FEF7BCFA1148D2
:101C6000FFF7F1FC08B1FEF7B6FA002007900890E4
:101C700007A90C48FFF730FA08B1FEF7ACFA60206C
:101C800000900020019002900490002269460548CF
:101C9000FFF755FC08B1FEF79EFA0248FFF724FC57
:101CA0000DB000BD8C00002000B587B0002003906F
:101CB000049005900690019002901548154908601F
:101CC00041F61F4048600021124881606321C160D5
:101CD0000021016180218161FFF728FA08B1FEF738
:101CE0007AFA4FF48050039003A90A48FFF7ABFA41
:101CF00008B1FEF770FA00200190029001A9054892
:101D0000FFF7EAF908B1FEF766FA07B000BD000078
:101D100000080040CC00002010B50B480B490860BB
:101D20004FF4E1304860002108488160C1600161E2
:101D30000C21416100218161C161FFF7E0FD08B123
:101D4000FEF749FA10BD00000038014050010020A4
:101D500000BFFEE77047704708B508490968C90821
:101D60004FF47A72B1FBF2F14143009100BF00BF22
:101D700000994A1E00920029F9D108BD00000020F8
:101D8000704710B5FEF77AFD10BD00B58FB0142175
:101D90000AA8FEF7D0F928216846FEF7CCF9012001
:101DA0000090000401900020029002200790C103DF
:101DB00008914FF4E01109916846FEF73FFF08B122
:101DC00000BFFEE70F200A9002200B9000200C902D
:101DD0000E904FF480600D9002210AA8FEF7F8FDE6
:101DE00008B100BFFEE70FB000BD00001148006859
:101DF00040F001000F490860084640680E4908405D
:101E00000C494860084600680C49084009490860C8
:101E10000846006820F4802008600846406820F4E6
:101E2000FE0048604FF41F008860C8030449086042
:101E300070470000001002400000FFF8FFFFF6FEB0
:101E400008ED00E010B50248FFF783FA10BD00006E
:101E50008C00002010B50248FFF77BFA10BD00008F
:101E6000CC00002010B50268184B984208D0B0F1A1
:101E7000804F05D0164B984202D0164B984203D1A2
:101E800022F070024B681A43104B984208D0B0F110
:101E9000804F05D00E4B984202D00E4B984203D192
:101EA00022F44072CB681A4322F080034C6943EA63
:101EB000040202608B68C3620B688362034B984222
:101EC00001D10B6903630123436110BD002C014064
:101ED000000400400008004030B501F01F05012457
:101EE00004FA05F3046A9C430462046A01F01F05C6
:101EF00002FA05F52C43046230BD70B505466C6AE4
:101F0000012084F83D00606AA84202D101202077B8
:101F100010E0A06AA84202D1022020770AE0E06A1D
:101F2000A84202D10420207704E0206BA84201D10E
:101F3000082020772046FFF7A1FB0020207770BD06
:101F400070B505466C6A012084F83D00606AA842BD
:101F500002D10120207710E0A06AA84202D102201D
:101F600020770AE0E06AA84202D10420207704E04A
:101F7000206BA84201D1082020772046FFF789FB7B
:101F80000020207770BD70B50446656A012085F891
:101F90003D002846FFF7DBF970BD30B50C4681687F
:101FA00021F47F4142EA032525432943816030BD66
:101FB0000A46816821F0700142F0070319438160ED
:101FC0007047000030B5056A25F001050562026A18
:101FD0004368846924F0700424F003040D682C43E2
:101FE00022F002028D682A430D4DA84206D100BF9F
:101FF00022F00802CD682A4322F00402084DA842CC
:1020000007D123F4807323F400734D692B438D694A
:102010002B43436084614D684563026230BD00001C
:10202000002C014030B5056A25F010050562026AF2
:102030004368846924F4E04424F440740D6844EA5D
:10204000052422F020028D6842EA05120E4DA842B6
:1020500007D100BF22F08002CD6842EA051222F0CB
:102060004002094DA84209D123F4806323F40063A0
:102070004D6943EA85038D6943EA850343608461C2
:102080004D688563026230BD002C014030B5056AA1
:1020900025F480750562026A4368C46924F07004FF
:1020A00024F003040D682C4322F400728D6842EA88
:1020B00005220F4DA84207D100BF22F40062CD686F
:1020C00042EA052222F48062094DA84209D123F494
:1020D000805323F400534D6943EA05138D6943EAA5
:1020E00005134360C4614D68C563026230BD0000E2
:1020F000002C014030B5056A25F480550562036A5D
:102100004468C26922F4E04222F440720D6842EA57
:10211000052223F400538D6843EA0533064DA84297
:1021200004D124F480444D6944EA85144460C261BA
:102130004D680564036230BD002C014030B50B468C
:102140001446026A056A25F001050562816921F0DD
:10215000F00141EA041122F00A021A43816102628D
:1021600030BD30B50B461446056A25F010050562F2
:102170008169026A21F4704141EA043122F0A0022F
:1021800042EA03128161026230BD000070B504466C
:102190002168096921F44051E26811432268116104
:1021A0002269A1681143626941EA02052168C96890
:1021B00041F20C62914329432268D1602168496948
:1021C00021F44071A269114322685161564A216885
:1021D000914254D1FEF7D8FC00EBC00101EB001195
:1021E00062689200B1FBF2F100EBC00202EB001258
:1021F00063689B00B2FBF3F26423B2FBF3F202EBE1
:10220000C20303EB0212A1EB8201322202EB0111A5
:102210006422B1FBF2F101F0F00100EBC00202EB2D
:10222000001263689B00B2FBF3F26423B2FBF3F28B
:1022300001EB021200EBC00101EB001163689B008F
:10224000B1FBF3F100EBC00303EB00136668B600CB
:10225000B3FBF6F36426B3FBF6F303EBC30606EB1E
:102260000313A1EB8301322303EB01116423B1FBC0
:10227000F3F101F00F0111442268916053E0FEF781
:1022800073FC00EBC00101EB001162689200B1FB2E
:10229000F2F100EBC00202EB001263689B00B2FB9C
:1022A000F3F26423B2FBF3F202EBC20303EB02127C
:1022B000A1EB8201322202EB01116422B1FBF2F1A7
:1022C00001F0F00100EBC00202EB001263689B001A
:1022D000B2FBF3F26423B2FBF3F201EB021200EB68
:1022E000C00101EB001163689B00B1FBF3F100EB4F
:1022F000C00303EB00136668B600B3FBF6F3642675
:10230000B3FBF6F303EBC30606EB0313A1EB830168
:10231000322303EB01116423B1FBF3F101F00F0150
:1023200011442268916070BD0038014000BFFEE793
:1023300000B587B049480188ADF8041080788DF861
:10234000060047480188ADF8071080788DF809002D
:1023500044480188ADF80A1080788DF80C00424896
:102360000188ADF80D1080788DF80F003F48018886
:10237000ADF8101080788DF812003D480188ADF856
:10238000131080788DF815003A480188ADF81610C2
:1023900080788DF8180038480078092856D2DFE890
:1023A00000F00B0511171D31383F460000F0E0F832
:1023B000FF20324908704DE000F0F4F8FF202F496B
:1023C000087047E000F02AFAFF202C49087041E02D
:1023D00000F0F4F9FF20294908703BE02848007814
:1023E00000EB400001A908440188ADF80010807896
:1023F0008DF802004020009900F046F8FF201F49A8
:10240000087027E01420FDF7B3FEFF201B49087079
:1024100020E02F20FDF7ACFEFF201849087019E0DE
:102420004620FDF7A5FEFF201449087012E013486E
:102430000078082804D000F09BF8002011490870AB
:1024400008200E49087000F0DDF803E0FF200B497A
:10245000087000BF00BF07B000BD0000352D0008A8
:10246000382D00083B2D00083E2D0008412D0008A6
:10247000442D0008472D0008820000208400002021
:10248000810000207C00002073B582B00546204802
:102490000078B3214843B42190FBF1F0C6B2304636
:1024A000FDF79CFE04469DF80C006043FF2190FB65
:1024B000F1F0C0B28DF804009DF80D00604390FB70
:1024C000F1F0C0B28DF805009DF80E00604390FB5E
:1024D000F1F0C0B28DF80600002013E09DF8041062
:1024E00000EB40020B4B1A4451709DF8051000EBB5
:1024F000400299549DF8061000EB40021A44917076
:10250000411CC8B2A842E9DB00F006F87FBD00001C
:1025100076000020300E002010B500F0FDF84FF4DA
:10252000CA63034A00210348FFF7B4F8044610BD0C
:10253000900100208C00002010B5FFF74BFBFFF747
:1025400063FB00200EE0002100EB4002074B995492
:1025500000EB40021A44517000EB40021A449170A3
:10256000411C88B24028EEDB10BD0000300E002078
:1025700010B5002410E0002004EB4401084A505438
:1025800004EB44011144487004EB44011144887089
:10259000FFF7C2FF601C84B2402CECDB10BD0000D2
:1025A000300E002010B5002424E014480078F521F6
:1025B0004843642190FBF1F004EB4401104A50546D
:1025C0000E480078C0EB0020642190FBF1F004EB92
:1025D00044011144487009480078E62148436421C9
:1025E00090FBF1F004EB440111448870FFF794FF75
:1025F000601C84B2402CD8DB10BD000075000020A8
:10260000300E002038B5FEF733F90546254800683E
:10261000281A322844D32348056023480078082824
:102620000DDB21490978083988B220490A88ADF8BC
:10263000002089788DF80210009900F03BF81A48C4
:10264000007818B118480078082812DA00240EE043
:10265000C4F1400188B215490A88ADF80020897894
:102660008DF80210009900F025F8601CC4B2082C07
:10267000EEDD0F480188ADF8001080788DF802007B
:1026800009480078009900F015F807480078401CC8
:102690000549087008460078402801DB00200870D2
:1026A00038BD0000780000207C0000204A2D000882
:1026B000352D000813B50446402C00DB1CBD9DF8E9
:1026C0000400134909784843642190FBF1F004EBBE
:1026D0004401104A114448709DF805000C490978DE
:1026E0004843642190FBF1F004EB440150549DF801
:1026F0000600074909784843642190FBF1F004EB98
:10270000440111448870FFF707FF00BFD6E70000BF
:1027100075000020300E002030B5282200203BE05C
:10272000002132E000EB4003224CE35C80240C41AA
:1027300023400BB1442300E0162354181E4D25F806
:10274000143000EB40031B4C23445B7880240C4185
:1027500023400BB1442400E0162453180833164DCF
:1027600025F8134000EB4003124C23449B7880244F
:102770000C4123400BB1442400E0162453181033BD
:102780000D4D25F813404B1C99B20829CADB02F104
:1027900018039AB2431C98B24028C1DB002006E01F
:1027A00000231418044D25F81430431C98B228282F
:1027B000F6DB30BD300E00209001002010B5002463
:1027C00025E014480078F5214843642190FBF1F09E
:1027D00004EB4401104A50540E480078C0EB00103E
:1027E0000001642190FBF1F004EB440111444870B6
:1027F00008480078C0EB0020642190FBF1F004EB66
:10280000440111448870FFF787FE601C84B2402C9D
:10281000D7DB10BD75000020300E002010B500245D
:1028200024E014480078D2214843642190FBF1F061
:1028300004EB4401104A50540E480078C0EB0020CD
:10284000642190FBF1F004EB440111444870094805
:10285000007896214843642190FBF1F004EB440199
:1028600011448870FFF758FE601C84B2402CD8DBFE
:1028700010BD000075000020300E002002480068E6
:10288000C0F30220704700000CED00E010B50028F6
:1028900004DB0A07130E054A135406E00A07140E58
:1028A000034A00F00F031B1FD45410BD00E400E0E6
:1028B00018ED00E002E008C8121F08C1002AFAD192
:1028C00070477047002001E001C1121F002AFBD1B0
:1028D0007047000010B500209B49087016E09B4827
:1028E0009949097830F8110000280ADD974896497F
:1028F000097830F81100401E9449934A127821F863
:10290000120091480078401C8F4908708E4800786A
:102910000328E4DB8E480078401C8D490870084687
:102920000078032876DB002008708749087005E1ED
:10293000884885490978405C8749834A12788854D9
:1029400081480078FFF782F882497F4A12788854DC
:1029500008467D490978405C01280AD17F487A49B8
:102960000978405C40F001017C48774A1278815434
:1029700009E07A4874490978405C20F00100774901
:10298000714A1278885473486F490978405C01286D
:102990000ED171486C490978405C48B96F486A4962
:1029A0000978405C40F002016C48674A1278815413
:1029B000684865490978405C78B967486249097890
:1029C000405C012809D165485F490978405C40F0C6
:1029D000040062495C4A1278885461485A4909786F
:1029E000405C052870D2DFE800F0031643707B00DE
:1029F000584855490978405C01280AD1C8205349F4
:102A0000514A127821F81200012155484E4A127895
:102A100081548DE097E04F484B490978405C58B9A4
:102A200014204A49484A127821F8120002204C49E1
:102A3000454A127888541AE044484349097830F8E6
:102A40001100A0B9642041493F4A127821F81200D0
:102A500042483D490978405C40F020003F493A4AED
:102A60001278885404213E48374A127881545FE036
:102A7000384835490978405C01280FD13748324938
:102A80000978405C40F0100134482F4A1278815494
:102A9000032133482C4A1278815414E02B482A49E8
:102AA000097830F8110070B92C4827490978405C42
:102AB00040F008012948244A12788154002028490E
:102AC000214A1278885433E02CE022481E490978C4
:102AD000405C20B9002122481B4A1278815427E02B
:102AE0001C4819490978405C28B900211C48164A3D
:102AF0001278815415E015481349097830F811000F
:102B000078B964201149104A127821F8120013484C
:102B10000D490978405C40F0400110480A4A12789B
:102B2000815405E000200E49074A1278885400BFFE
:102B300000BF05480078401C03490870024800782F
:102B40000328FFF6F5AE10BD120000201C00002087
:102B50001100002013000020160000200E000020AD
:102B60001900002002460748805C084040B1012956
:102B700004D00448805C8843024B9854012070477D
:102B80000020FCE70E000020FDF784FEFFF7FDF8B3
:102B9000FEF734FFFFF7D0FCFFF7BEF80448FEF75E
:102BA0003DFB03E0FEF776FFFFF7C2FBFAE700000C
:102BB000CC00002010B504464CB1012C04D0022CEE
:102BC0000BD0032C0FD10BE0FFF7D2FC0CE0002060
:102BD00006490870FFF7E6FC06E0FFF71FFE03E07A
:102BE000FFF7ECFD00E000BF00BF10BD8300002038
:102BF00016480078164909780844144908700846B0
:102C00000078B42806DBFF20114908700120114923
:102C1000087019E00D480078002815DC00200B49E9
:102C2000087001200A4908700A48007860B10A4813
:102C30000078401C072190FBF1F201FB12000649CD
:102C400008700020034908707047000076000020DB
:102C5000770000208000002081000020000000009C
:102C6000000000000102030406070809000000003C
:102C7000010203040000000000000000000000004A
:102C80000000000101010101010102020202020330
:102C900003030404040505050606070708080909D7
:102CA0000A0A0B0C0C0D0D0E0F0F1011121213143B
:102CB0001516171818191A1B1C1D1E1F2021232456
:102CC000252627292A2B2C2E2F303233353638391A
:102CD0003B3C3E4041434546484A4C4E4F5153557C
:102CE00057595B5D5F616466686A6D6F7174767871
:102CF0007B7D808285878A8D8F9295979A9DA0A3F0
:102D0000A5A8ABAEB1B4B7BABDC0C3C6C9CCCFD20B
:102D1000D5D8DBDEE1E4E7EBEEF1F4F8FBFEFFFFF4
:102D2000FFFFFFFFFFFFFFFF00000000FF000000AC
:102D3000FF000000FFFF00007F6A007FD80000FF57
:102D40000000FFFF0000FFEE82EE000000FFFFFF2B
:102D5000FF00DCFF00007F6A007FD80000FF00005A
:102D6000FFFF0000FFEE82EE882D0008000000202B
:102D70008C000000B4280008142E00088C000020ED
:102D800064120000C42800080024F40000000000C1
:102D90001000000001000000000000000000000022
:102DA0000000000000000000000000000000000023
:102DB00000000000000001020304050607080009E6
:102DC0000A0B0C0D0E0F1000111213141516171804
:102DD00000191A1B1C1D1E1F20002122232425263A
:102DE000272800292A2B2C2D2E2F30003132333466
:102DF0003536373800393A3B3C3D3E3F402F0001E5
:102E0000000000000000000000000100FF000000C2
:042E100000000000BE
:0400000508000105E9
:00000001FF
